{
  "contractName": "Item",
  "abi": [
    {
      "inputs": [
        {
          "internalType": "contract ItemManager",
          "name": "_itemManager",
          "type": "address"
        },
        {
          "internalType": "uint256",
          "name": "_price",
          "type": "uint256"
        },
        {
          "internalType": "uint256",
          "name": "_index",
          "type": "uint256"
        }
      ],
      "stateMutability": "nonpayable",
      "type": "constructor"
    },
    {
      "stateMutability": "nonpayable",
      "type": "fallback"
    },
    {
      "inputs": [],
      "name": "indx",
      "outputs": [
        {
          "internalType": "uint256",
          "name": "",
          "type": "uint256"
        }
      ],
      "stateMutability": "view",
      "type": "function"
    },
    {
      "inputs": [],
      "name": "paidMoney",
      "outputs": [
        {
          "internalType": "uint256",
          "name": "",
          "type": "uint256"
        }
      ],
      "stateMutability": "view",
      "type": "function"
    },
    {
      "inputs": [],
      "name": "price",
      "outputs": [
        {
          "internalType": "uint256",
          "name": "",
          "type": "uint256"
        }
      ],
      "stateMutability": "view",
      "type": "function"
    },
    {
      "stateMutability": "payable",
      "type": "receive"
    }
  ],
  "bytecode": "0x608060405234801561001057600080fd5b5060405161074c38038061074c83398181016040528101906100329190610133565b826000806101000a81548173ffffffffffffffffffffffffffffffffffffffff021916908373ffffffffffffffffffffffffffffffffffffffff1602179055508160018190555080600381905550505050610186565b600080fd5b600073ffffffffffffffffffffffffffffffffffffffff82169050919050565b60006100b88261008d565b9050919050565b60006100ca826100ad565b9050919050565b6100da816100bf565b81146100e557600080fd5b50565b6000815190506100f7816100d1565b92915050565b6000819050919050565b610110816100fd565b811461011b57600080fd5b50565b60008151905061012d81610107565b92915050565b60008060006060848603121561014c5761014b610088565b5b600061015a868287016100e8565b935050602061016b8682870161011e565b925050604061017c8682870161011e565b9150509250925092565b6105b7806101956000396000f3fe6080604052600436106100385760003560e01c80630c46c90d1461024f57806321de51ae1461027a578063a035b1fe146102a557610240565b36610240576001543414610081576040517f08c379a00000000000000000000000000000000000000000000000000000000081526004016100789061033f565b60405180910390fd5b6000600254146100c6576040517f08c379a00000000000000000000000000000000000000000000000000000000081526004016100bd906103ab565b60405180910390fd5b34600260008282546100d89190610404565b9250508190555060008060009054906101000a900473ffffffffffffffffffffffffffffffffffffffff1673ffffffffffffffffffffffffffffffffffffffff163460035460405160240161012d9190610469565b6040516020818303038152906040527f800fb83f000000000000000000000000000000000000000000000000000000007bffffffffffffffffffffffffffffffffffffffffffffffffffffffff19166020820180517bffffffffffffffffffffffffffffffffffffffffffffffffffffffff83818316178352505050506040516101b791906104fe565b60006040518083038185875af1925050503d80600081146101f4576040519150601f19603f3d011682016040523d82523d6000602084013e6101f9565b606091505b505090508061023d576040517f08c379a000000000000000000000000000000000000000000000000000000000815260040161023490610561565b60405180910390fd5b50005b34801561024c57600080fd5b50005b34801561025b57600080fd5b506102646102d0565b6040516102719190610469565b60405180910390f35b34801561028657600080fd5b5061028f6102d6565b60405161029c9190610469565b60405180910390f35b3480156102b157600080fd5b506102ba6102dc565b6040516102c79190610469565b60405180910390f35b60035481565b60025481565b60015481565b600082825260208201905092915050565b7f506c656173652070726f76696465204578616374205061796d656e7420212100600082015250565b6000610329601f836102e2565b9150610334826102f3565b602082019050919050565b600060208201905081810360008301526103588161031c565b9050919050565b7f4974656d20697320616c72656164792070616964202121000000000000000000600082015250565b60006103956017836102e2565b91506103a08261035f565b602082019050919050565b600060208201905081810360008301526103c481610388565b9050919050565b6000819050919050565b7f4e487b7100000000000000000000000000000000000000000000000000000000600052601160045260246000fd5b600061040f826103cb565b915061041a836103cb565b9250827fffffffffffffffffffffffffffffffffffffffffffffffffffffffffffffffff0382111561044f5761044e6103d5565b5b828201905092915050565b610463816103cb565b82525050565b600060208201905061047e600083018461045a565b92915050565b600081519050919050565b600081905092915050565b60005b838110156104b857808201518184015260208101905061049d565b838111156104c7576000848401525b50505050565b60006104d882610484565b6104e2818561048f565b93506104f281856020860161049a565b80840191505092915050565b600061050a82846104cd565b915081905092915050565b7f44656c697665727920646964206e6f7420776f726b2021210000000000000000600082015250565b600061054b6018836102e2565b915061055682610515565b602082019050919050565b6000602082019050818103600083015261057a8161053e565b905091905056fea264697066735822122021d6f5407d38d7d276094ae969fa9c2f78e387cd7de6492dc38334c9cb6263a264736f6c634300080a0033",
  "immutableReferences": {},
  "source": "// SPDX-License-Identifier: GPL-3.0\r\npragma solidity ^0.8.10;\r\n\r\nimport \"./ItemManager.sol\";\r\n\r\ncontract Item{\r\n    ItemManager itemManager;\r\n    uint public price;\r\n    uint public paidMoney;\r\n    uint public indx;\r\n\r\n\r\n    constructor(ItemManager _itemManager,uint _price,uint _index){\r\n        itemManager = _itemManager;\r\n        price = _price;\r\n        indx = _index;\r\n    }\r\n\r\n    receive() external payable{\r\n        require(msg.value == price, \"Please provide Exact Payment !!\");\r\n        require(paidMoney == 0,\"Item is already paid !!\");\r\n        paidMoney += msg.value;\r\n        (bool result, ) = address(itemManager).call{value: msg.value}(abi.encodeWithSignature(\"triggerPayment(uint256)\",indx));\r\n        require(result,\"Delivery did not work !!\");\r\n    }\r\n\r\n    fallback() external{}\r\n\r\n}",
  "sourcePath": "D:\\Imp\\BlockChain\\Truffle\\s06-eventtrigger\\contracts\\Item.sol",
  "compiler": {
    "name": "solc",
    "version": "0.8.10+commit.fc410830.Emscripten.clang"
  },
  "schemaVersion": "3.4.3",
  "updatedAt": "2021-12-07T06:27:59.715Z",
  "devdoc": {
    "kind": "dev",
    "methods": {},
    "version": 1
  },
  "userdoc": {
    "kind": "user",
    "methods": {},
    "version": 1
  }
}