{
  "contractName": "ItemManager",
  "abi": [
    {
      "anonymous": false,
      "inputs": [
        {
          "indexed": false,
          "internalType": "uint256",
          "name": "_itemIndx",
          "type": "uint256"
        },
        {
          "indexed": false,
          "internalType": "uint256",
          "name": "_state",
          "type": "uint256"
        },
        {
          "indexed": false,
          "internalType": "address",
          "name": "_address",
          "type": "address"
        }
      ],
      "name": "SupplyChainStep",
      "type": "event"
    },
    {
      "inputs": [],
      "name": "isOwner",
      "outputs": [
        {
          "internalType": "bool",
          "name": "",
          "type": "bool"
        }
      ],
      "stateMutability": "view",
      "type": "function",
      "constant": true
    },
    {
      "inputs": [
        {
          "internalType": "uint256",
          "name": "",
          "type": "uint256"
        }
      ],
      "name": "mp",
      "outputs": [
        {
          "internalType": "contract Item",
          "name": "item",
          "type": "address"
        },
        {
          "internalType": "string",
          "name": "identifier",
          "type": "string"
        },
        {
          "internalType": "enum ItemManager.SupplyChainState",
          "name": "state",
          "type": "uint8"
        }
      ],
      "stateMutability": "view",
      "type": "function",
      "constant": true
    },
    {
      "inputs": [],
      "name": "owner",
      "outputs": [
        {
          "internalType": "address",
          "name": "",
          "type": "address"
        }
      ],
      "stateMutability": "view",
      "type": "function",
      "constant": true
    },
    {
      "inputs": [
        {
          "internalType": "string",
          "name": "_identifier",
          "type": "string"
        },
        {
          "internalType": "uint256",
          "name": "_itemPrice",
          "type": "uint256"
        }
      ],
      "name": "createItem",
      "outputs": [],
      "stateMutability": "nonpayable",
      "type": "function"
    },
    {
      "inputs": [
        {
          "internalType": "uint256",
          "name": "_indx",
          "type": "uint256"
        }
      ],
      "name": "triggerPayment",
      "outputs": [],
      "stateMutability": "payable",
      "type": "function",
      "payable": true
    },
    {
      "inputs": [
        {
          "internalType": "uint256",
          "name": "_indx",
          "type": "uint256"
        }
      ],
      "name": "triggerDelivery",
      "outputs": [],
      "stateMutability": "nonpayable",
      "type": "function"
    }
  ],
  "bytecode": "0x608060405234801561001057600080fd5b50336000806101000a81548173ffffffffffffffffffffffffffffffffffffffff021916908373ffffffffffffffffffffffffffffffffffffffff160217905550611aaf806100606000396000f3fe6080604052600436106200005c5760003560e01c8063800fb83f14620000615780638c55174214620000815780638da5cb5b14620000af5780638f32d59b14620000df578063cd31831e146200010f578063dd3db9e3146200013d575b600080fd5b6200007f600480360381019062000079919062000a60565b62000183565b005b3480156200008e57600080fd5b50620000ad6004803603810190620000a7919062000bf4565b62000432565b005b348015620000bc57600080fd5b50620000c762000623565b604051620000d6919062000c9f565b60405180910390f35b348015620000ec57600080fd5b50620000f762000647565b60405162000106919062000cd9565b60405180910390f35b3480156200011c57600080fd5b506200013b600480360381019062000135919062000a60565b6200069d565b005b3480156200014a57600080fd5b5062000169600480360381019062000163919062000a60565b6200086c565b6040516200017a9392919062000e74565b60405180910390f35b60006001600083815260200190815260200160002060000160009054906101000a900473ffffffffffffffffffffffffffffffffffffffff1690503373ffffffffffffffffffffffffffffffffffffffff168173ffffffffffffffffffffffffffffffffffffffff16146200022f576040517f08c379a0000000000000000000000000000000000000000000000000000000008152600401620002269062000f2e565b60405180910390fd5b348173ffffffffffffffffffffffffffffffffffffffff1663a035b1fe6040518163ffffffff1660e01b8152600401602060405180830381865afa1580156200027c573d6000803e3d6000fd5b505050506040513d601f19601f82011682018060405250810190620002a2919062000f67565b14620002e5576040517f08c379a0000000000000000000000000000000000000000000000000000000008152600401620002dc9062000fe9565b60405180910390fd5b60006002811115620002fc57620002fb62000df4565b5b6001600084815260200190815260200160002060020160009054906101000a900460ff16600281111562000335576200033462000df4565b5b1462000378576040517f08c379a00000000000000000000000000000000000000000000000000000000081526004016200036f906200105b565b60405180910390fd5b600180600084815260200190815260200160002060020160006101000a81548160ff02191690836002811115620003b457620003b362000df4565b5b02179055507fa4035636e99f06b7651a604c1019fa4e8779fe68ef27eeb74dff2de348f6199b826001600085815260200190815260200160002060020160009054906101000a900460ff16600281111562000414576200041362000df4565b5b8360405162000426939291906200108e565b60405180910390a15050565b6200043c62000647565b6200047e576040517f08c379a000000000000000000000000000000000000000000000000000000000815260040162000475906200111b565b60405180910390fd5b60003082600254604051620004939062000953565b620004a19392919062001176565b604051809103906000f080158015620004be573d6000803e3d6000fd5b5090508060016000600254815260200190815260200160002060000160006101000a81548173ffffffffffffffffffffffffffffffffffffffff021916908373ffffffffffffffffffffffffffffffffffffffff1602179055508260016000600254815260200190815260200160002060010190805190602001906200054692919062000961565b50600060016000600254815260200190815260200160002060020160006101000a81548160ff0219169083600281111562000586576200058562000df4565b5b02179055507fa4035636e99f06b7651a604c1019fa4e8779fe68ef27eeb74dff2de348f6199b60025460016000600254815260200190815260200160002060020160009054906101000a900460ff166002811115620005ea57620005e962000df4565b5b83604051620005fc939291906200108e565b60405180910390a1600260008154809291906200061990620011e2565b9190505550505050565b60008054906101000a900473ffffffffffffffffffffffffffffffffffffffff1681565b60003373ffffffffffffffffffffffffffffffffffffffff1660008054906101000a900473ffffffffffffffffffffffffffffffffffffffff1673ffffffffffffffffffffffffffffffffffffffff1614905090565b620006a762000647565b620006e9576040517f08c379a0000000000000000000000000000000000000000000000000000000008152600401620006e0906200111b565b60405180910390fd5b600160028111156200070057620006ff62000df4565b5b6001600083815260200190815260200160002060020160009054906101000a900460ff16600281111562000739576200073862000df4565b5b146200077c576040517f08c379a00000000000000000000000000000000000000000000000000000000081526004016200077390620012a6565b60405180910390fd5b60026001600083815260200190815260200160002060020160006101000a81548160ff02191690836002811115620007b957620007b862000df4565b5b02179055507fa4035636e99f06b7651a604c1019fa4e8779fe68ef27eeb74dff2de348f6199b816001600084815260200190815260200160002060020160009054906101000a900460ff16600281111562000819576200081862000df4565b5b6001600085815260200190815260200160002060000160009054906101000a900473ffffffffffffffffffffffffffffffffffffffff1660405162000861939291906200108e565b60405180910390a150565b60016020528060005260406000206000915090508060000160009054906101000a900473ffffffffffffffffffffffffffffffffffffffff1690806001018054620008b790620012f7565b80601f0160208091040260200160405190810160405280929190818152602001828054620008e590620012f7565b8015620009365780601f106200090a5761010080835404028352916020019162000936565b820191906000526020600020905b8154815290600101906020018083116200091857829003601f168201915b5050505050908060020160009054906101000a900460ff16905083565b61074c806200132e83390190565b8280546200096f90620012f7565b90600052602060002090601f016020900481019282620009935760008555620009df565b82601f10620009ae57805160ff1916838001178555620009df565b82800160010185558215620009df579182015b82811115620009de578251825591602001919060010190620009c1565b5b509050620009ee9190620009f2565b5090565b5b8082111562000a0d576000816000905550600101620009f3565b5090565b6000604051905090565b600080fd5b600080fd5b6000819050919050565b62000a3a8162000a25565b811462000a4657600080fd5b50565b60008135905062000a5a8162000a2f565b92915050565b60006020828403121562000a795762000a7862000a1b565b5b600062000a898482850162000a49565b91505092915050565b600080fd5b600080fd5b6000601f19601f8301169050919050565b7f4e487b7100000000000000000000000000000000000000000000000000000000600052604160045260246000fd5b62000ae78262000a9c565b810181811067ffffffffffffffff8211171562000b095762000b0862000aad565b5b80604052505050565b600062000b1e62000a11565b905062000b2c828262000adc565b919050565b600067ffffffffffffffff82111562000b4f5762000b4e62000aad565b5b62000b5a8262000a9c565b9050602081019050919050565b82818337600083830152505050565b600062000b8d62000b878462000b31565b62000b12565b90508281526020810184848401111562000bac5762000bab62000a97565b5b62000bb984828562000b67565b509392505050565b600082601f83011262000bd95762000bd862000a92565b5b813562000beb84826020860162000b76565b91505092915050565b6000806040838503121562000c0e5762000c0d62000a1b565b5b600083013567ffffffffffffffff81111562000c2f5762000c2e62000a20565b5b62000c3d8582860162000bc1565b925050602062000c508582860162000a49565b9150509250929050565b600073ffffffffffffffffffffffffffffffffffffffff82169050919050565b600062000c878262000c5a565b9050919050565b62000c998162000c7a565b82525050565b600060208201905062000cb6600083018462000c8e565b92915050565b60008115159050919050565b62000cd38162000cbc565b82525050565b600060208201905062000cf0600083018462000cc8565b92915050565b6000819050919050565b600062000d2162000d1b62000d158462000c5a565b62000cf6565b62000c5a565b9050919050565b600062000d358262000d00565b9050919050565b600062000d498262000d28565b9050919050565b62000d5b8162000d3c565b82525050565b600081519050919050565b600082825260208201905092915050565b60005b8381101562000d9d57808201518184015260208101905062000d80565b8381111562000dad576000848401525b50505050565b600062000dc08262000d61565b62000dcc818562000d6c565b935062000dde81856020860162000d7d565b62000de98162000a9c565b840191505092915050565b7f4e487b7100000000000000000000000000000000000000000000000000000000600052602160045260246000fd5b6003811062000e375762000e3662000df4565b5b50565b600081905062000e4a8262000e23565b919050565b600062000e5c8262000e3a565b9050919050565b62000e6e8162000e4f565b82525050565b600060608201905062000e8b600083018662000d50565b818103602083015262000e9f818562000db3565b905062000eb0604083018462000e63565b949350505050565b7f4f6e6c79206974656d732061726520616c6c6f77656420746f2075706461746560008201527f207468656d73656c657665732021000000000000000000000000000000000000602082015250565b600062000f16602e8362000d6c565b915062000f238262000eb8565b604082019050919050565b6000602082019050818103600083015262000f498162000f07565b9050919050565b60008151905062000f618162000a2f565b92915050565b60006020828403121562000f805762000f7f62000a1b565b5b600062000f908482850162000f50565b91505092915050565b7f4e6f742066756c6c792070616964207965742021210000000000000000000000600082015250565b600062000fd160158362000d6c565b915062000fde8262000f99565b602082019050919050565b60006020820190508181036000830152620010048162000fc2565b9050919050565b7f4974656d2069732066757468657220696e2074686520737570706c7900000000600082015250565b600062001043601c8362000d6c565b915062001050826200100b565b602082019050919050565b60006020820190508181036000830152620010768162001034565b9050919050565b620010888162000a25565b82525050565b6000606082019050620010a560008301866200107d565b620010b460208301856200107d565b620010c3604083018462000c8e565b949350505050565b7f596f7520617265206e6f7420746865206f776e65722021210000000000000000600082015250565b60006200110360188362000d6c565b91506200111082620010cb565b602082019050919050565b600060208201905081810360008301526200113681620010f4565b9050919050565b60006200114a8262000d00565b9050919050565b60006200115e826200113d565b9050919050565b620011708162001151565b82525050565b60006060820190506200118d600083018662001165565b6200119c60208301856200107d565b620011ab60408301846200107d565b949350505050565b7f4e487b7100000000000000000000000000000000000000000000000000000000600052601160045260246000fd5b6000620011ef8262000a25565b91507fffffffffffffffffffffffffffffffffffffffffffffffffffffffffffffffff821415620012255762001224620011b3565b5b600182019050919050565b7f4974656d206973206675727468657220696e2074686520737570706c7920636860008201527f61696e0000000000000000000000000000000000000000000000000000000000602082015250565b60006200128e60238362000d6c565b91506200129b8262001230565b604082019050919050565b60006020820190508181036000830152620012c1816200127f565b9050919050565b7f4e487b7100000000000000000000000000000000000000000000000000000000600052602260045260246000fd5b600060028204905060018216806200131057607f821691505b60208210811415620013275762001326620012c8565b5b5091905056fe608060405234801561001057600080fd5b5060405161074c38038061074c83398181016040528101906100329190610133565b826000806101000a81548173ffffffffffffffffffffffffffffffffffffffff021916908373ffffffffffffffffffffffffffffffffffffffff1602179055508160018190555080600381905550505050610186565b600080fd5b600073ffffffffffffffffffffffffffffffffffffffff82169050919050565b60006100b88261008d565b9050919050565b60006100ca826100ad565b9050919050565b6100da816100bf565b81146100e557600080fd5b50565b6000815190506100f7816100d1565b92915050565b6000819050919050565b610110816100fd565b811461011b57600080fd5b50565b60008151905061012d81610107565b92915050565b60008060006060848603121561014c5761014b610088565b5b600061015a868287016100e8565b935050602061016b8682870161011e565b925050604061017c8682870161011e565b9150509250925092565b6105b7806101956000396000f3fe6080604052600436106100385760003560e01c80630c46c90d1461024f57806321de51ae1461027a578063a035b1fe146102a557610240565b36610240576001543414610081576040517f08c379a00000000000000000000000000000000000000000000000000000000081526004016100789061033f565b60405180910390fd5b6000600254146100c6576040517f08c379a00000000000000000000000000000000000000000000000000000000081526004016100bd906103ab565b60405180910390fd5b34600260008282546100d89190610404565b9250508190555060008060009054906101000a900473ffffffffffffffffffffffffffffffffffffffff1673ffffffffffffffffffffffffffffffffffffffff163460035460405160240161012d9190610469565b6040516020818303038152906040527f800fb83f000000000000000000000000000000000000000000000000000000007bffffffffffffffffffffffffffffffffffffffffffffffffffffffff19166020820180517bffffffffffffffffffffffffffffffffffffffffffffffffffffffff83818316178352505050506040516101b791906104fe565b60006040518083038185875af1925050503d80600081146101f4576040519150601f19603f3d011682016040523d82523d6000602084013e6101f9565b606091505b505090508061023d576040517f08c379a000000000000000000000000000000000000000000000000000000000815260040161023490610561565b60405180910390fd5b50005b34801561024c57600080fd5b50005b34801561025b57600080fd5b506102646102d0565b6040516102719190610469565b60405180910390f35b34801561028657600080fd5b5061028f6102d6565b60405161029c9190610469565b60405180910390f35b3480156102b157600080fd5b506102ba6102dc565b6040516102c79190610469565b60405180910390f35b60035481565b60025481565b60015481565b600082825260208201905092915050565b7f506c656173652070726f76696465204578616374205061796d656e7420212100600082015250565b6000610329601f836102e2565b9150610334826102f3565b602082019050919050565b600060208201905081810360008301526103588161031c565b9050919050565b7f4974656d20697320616c72656164792070616964202121000000000000000000600082015250565b60006103956017836102e2565b91506103a08261035f565b602082019050919050565b600060208201905081810360008301526103c481610388565b9050919050565b6000819050919050565b7f4e487b7100000000000000000000000000000000000000000000000000000000600052601160045260246000fd5b600061040f826103cb565b915061041a836103cb565b9250827fffffffffffffffffffffffffffffffffffffffffffffffffffffffffffffffff0382111561044f5761044e6103d5565b5b828201905092915050565b610463816103cb565b82525050565b600060208201905061047e600083018461045a565b92915050565b600081519050919050565b600081905092915050565b60005b838110156104b857808201518184015260208101905061049d565b838111156104c7576000848401525b50505050565b60006104d882610484565b6104e2818561048f565b93506104f281856020860161049a565b80840191505092915050565b600061050a82846104cd565b915081905092915050565b7f44656c697665727920646964206e6f7420776f726b2021210000000000000000600082015250565b600061054b6018836102e2565b915061055682610515565b602082019050919050565b6000602082019050818103600083015261057a8161053e565b905091905056fea264697066735822122021d6f5407d38d7d276094ae969fa9c2f78e387cd7de6492dc38334c9cb6263a264736f6c634300080a0033a2646970667358221220323b7cbe7eae08ba1681378690674d090176b3970fcf8ce8f229c03e864874df64736f6c634300080a0033",
  "immutableReferences": {},
  "source": "// SPDX-License-Identifier: GPL-3.0\r\npragma solidity ^0.8.10;\r\nimport \"./Item.sol\";\r\nimport \"./Ownable.sol\";\r\n\r\ncontract ItemManager is Ownable{\r\n\r\n    enum SupplyChainState{Created,Paid,Delivered}\r\n    event SupplyChainStep(uint _itemIndx,uint _state,address _address);\r\n\r\n    struct MItem{\r\n        Item item;\r\n        string identifier;\r\n        ItemManager.SupplyChainState state;\r\n    }\r\n    \r\n    mapping(uint => MItem) public mp;\r\n    uint indx;\r\n    \r\n    function createItem(string memory _identifier,uint _itemPrice) public onlyOwner{\r\n        Item item = new Item(this,_itemPrice,indx);\r\n        mp[indx].item = item;\r\n        mp[indx].identifier = _identifier;\r\n        mp[indx].state = SupplyChainState.Created;\r\n\r\n        emit SupplyChainStep(indx,uint(mp[indx].state),address(item));\r\n        indx++;\r\n    }\r\n\r\n    function triggerPayment(uint _indx) public payable{\r\n        Item item = mp[_indx].item;\r\n        require(address(item) == msg.sender,\"Only items are allowed to update themseleves !\"); // didn't understood\r\n        require(item.price() == msg.value,\"Not fully paid yet !!\");  // reduntant , why item.price \"()\" ?\r\n        require(mp[_indx].state == SupplyChainState.Created,\"Item is futher in the supply\");\r\n        mp[_indx].state = SupplyChainState.Paid;\r\n\r\n        emit SupplyChainStep(_indx,uint(mp[_indx].state),address(item));\r\n    }\r\n\r\n\r\n    function triggerDelivery(uint _indx) public onlyOwner{\r\n        require(mp[_indx].state == SupplyChainState.Paid,\"Item is further in the supply chain\");\r\n        mp[_indx].state = SupplyChainState.Delivered;\r\n        emit SupplyChainStep(_indx,uint(mp[_indx].state),address(mp[_indx].item));\r\n    }\r\n\r\n\r\n}",
  "sourcePath": "D:\\Imp\\BlockChain\\Truffle\\s06-eventtrigger\\contracts\\ItemManager.sol",
  "compiler": {
    "name": "solc",
    "version": "0.8.10+commit.fc410830.Emscripten.clang"
  },
  "schemaVersion": "3.4.3",
  "updatedAt": "2021-12-07T06:28:08.648Z",
  "networkType": "ethereum",
  "devdoc": {
    "kind": "dev",
    "methods": {},
    "version": 1
  },
  "userdoc": {
    "kind": "user",
    "methods": {},
    "version": 1
  }
}